:020000040800F2
:10000000800B002089010008471700089D14000894
:100010001517000867030008D5200008000000003D
:10002000000000000000000000000000051D0008A6
:10003000DD03000800000000DD1C0008051E0008AC
:10004000A3010008A3010008A3010008A301000800
:10005000A3010008A3010008A3010008A3010008F0
:10006000A3010008A3010008A3010008A3010008E0
:10007000A3010008A3010008A3010008A3010008D0
:10008000A3010008A3010008A3010008A3010008C0
:10009000A3010008A3010008A3010008A3010008B0
:1000A000A3010008A3010008A3010008A3010008A0
:1000B000A3010008A3010008A3010008A301000890
:1000C000A3010008A3010008A3010008A301000880
:1000D000A3010008A3010008A3010008A301000870
:1000E000A3010008A3010008A301000800F002F822
:1000F00000F03AF80AA090E8000C82448344AAF188
:100100000107DA4501D100F02FF8AFF2090EBAE885
:100110000F0013F0010F18BFFB1A43F0010318473B
:10012000E82D0000082E0000103A24BF78C878C1DE
:10013000FAD8520724BF30C830C144BF04680C60ED
:10014000704700000023002400250026103A28BF35
:1001500078C1FBD8520728BF30C148BF0B60704739
:100160001FB51FBD10B510BD00F09EF81146FFF77A
:10017000F7FF01F0C1FF00F0BCF803B4FFF7F2FF96
:1001800003BC00F0BFF80000094880470948004759
:10019000FEE7FEE7FEE7FEE7FEE7FEE7FEE7FEE737
:1001A000FEE7FEE704480549054A064B7047000094
:1001B000831E0008ED00000880050020800B002051
:1001C00080070020800700204FF0000200B5134692
:1001D00094469646203922BFA0E80C50A0E80C5067
:1001E000B1F12001BFF4F7AF090728BFA0E80C5018
:1001F00048BF0CC05DF804EB890028BF40F8042B11
:1002000008BF704748BF20F8022B11F0804F18BF7D
:1002100000F8012B704700004FF0013C50F8042B10
:1002200051F8043B9A4221D1A2EB0C03934313EA09
:10023000CC1317D150F8042B51F8043B9A4215D136
:10024000A2EB0C03934313EACC130BD150F8042B0D
:1002500051F8043B9A4209D1A2EB0C03934313EAF1
:10026000CC13DBD04FF00000704700BFD01A01BAAA
:10027000B1FA81F101F0180122FA01F0CB40C1F18D
:100280002001DBB2C0B2C01A2CFA01F3D11A91439B
:1002900011EAC311E6D170477047704770470000FC
:1002A000004870471C0500207546FFF7F9FFAE4671
:1002B00005006946534620F00700854618B020B572
:1002C000FFF770FFBDE820404FF000064FF0000739
:1002D0004FF000084FF0000B21F00701AC46ACE8EE
:1002E000C009ACE8C009ACE8C009ACE8C0098D465B
:1002F000704710B50446AFF300802046BDE81040BB
:10030000FFF73BBF01491820ABBEFEE72600020005
:10031000704770B5044620688168C943C90716D183
:10032000816821F00101816000F0B2FA054609E020
:1003300000F0AEFA401B022804D920688068C04350
:10034000C00706D020688068C043C007F0D00020F6
:1003500070BDA06A40F01000A062E06A40F00100A9
:10036000E062012070BDFEE730B5014600201A4B67
:10037000441F102993F9002026D2DFE801F01D1553
:100380000B1008252619122525250D25171B4FF0C2
:10039000FF301AE0012018E06FF0010015E00220A4
:1003A00013E06FF0030010E004200EE020460CE0A4
:1003B00005200AE0632030BD002A02DD4FF0050071
:1003C00003E002DA204600E010460029F3D00F29AE
:1003D000F1D0187030BD000000000020704772B6E8
:1003E000FEE701F091BC0000F8B500230025009560
:1003F00090F82420012A12D0012280F824204A6893
:100400001F26072A0DD20468676B521E02EB820278
:100410009640B7430E689640374367631AE0022060
:10042000F8BD0D2A0BD20468276BD21F02EB8202A3
:100430009640B7430E689640374327630AE0046846
:10044000E76A0D3A02EB82029640B7430E68964087
:100450003743E7620A6807260A2A0BD30468E7686D
:100460000A3A02EB42029640B7438E689640374301
:10047000E76009E00468276902EB42029640B7434F
:100480008E689640374327610A68102A01D0112AE6
:1004900023D1144C0268A2421AD1946824021CD4BD
:1004A000946844F4000494600968102915D10E4939
:1004B0000E4A0968B1FBF2F101EB8101490000919C
:1004C00002E00099491E009100990029F9D104E049
:1004D000816A41F020018162012380F8245018468E
:1004E000F8BD0000002401401000002040420F0031
:1004F0002DE9F041044600270025002C03D0A06A16
:10050000002618B108E00120BDE8F081E66284F819
:100510002460204600F078F82046FFF7FAFEA16A32
:10052000C90600D428B1A06A40F01000A0620120E2
:10053000EAE7A16A21F4885141F00201A1626268F0
:10054000E169237B0A4347EA43010A43A1684FF468
:100550008077B94208D0012906D0002194F814C050
:10056000BCF1010F02D00AE03946F7E7F3B1A36A04
:1005700043F02003A362E36A43F00103E3622368CC
:10058000D3F804C02CF4694C4CEA010CC3F804C045
:1005900021688B68DFF868C003EA0C0313438B60A3
:1005A000A168B94209D0012907D009E0A3695B1EFF
:1005B00041EA433141F40061E1E7218A491E0D051A
:1005C0002168CB6A23F470032B43CB6221688968CE
:1005D0000C4B1940914207D1E662A16A21F0020159
:1005E00041F00101A1628FE7A06A20F0020040F013
:1005F0001000A062E06A40F00100E062012083E7A1
:10060000FDF7E1FFFE0E1FFF00B585B0002101914F
:1006100002910391049100680E49884218D10E4856
:10062000816941F400718161816901F40071009177
:10063000816941F004018161806900F0040000904B
:10064000402001900320029001A9044800F01AF80C
:1006500005B000BD00240140001002400008014028
:1006600070B5044600F014F90546601C02D0044839
:100670000078044400F00CF9401BA042FAD370BD8E
:10068000040000202DE9F84F00240023DFF8C49176
:100690004FF00F08A9F1040B09F1040AABF1040EA5
:1006A000D1E00127A7403A40BA4275D1DFF8A8C18E
:1006B0004D68A5EB0C0665452BD00DDC032D34D021
:1006C00005DC35B3012D19D0022D2FD11BE0112DE2
:1006D00016D0122D2AD119E0B6F5881F19D006DCE4
:1006E000B6F5803F15D0B6F5801F1FD111E0B6F5E5
:1006F000001F0ED0B6F5041F18D10AE0CB6815E034
:10070000CB681B1D12E0CB6808330FE0CB680C33BD
:100710000CE08B6823B1012B04D00823476105E06E
:10072000042303E00823076100E00023FF2A01D827
:10073000054601E000F1040502D84FEA840603E013
:10074000A4F108064FEA86062F6808FA06FC27EA95
:100750000C0703FA06F647EA06072F604D68ED001E
:1007600070D53E4DAE6946F00106AE61AD6905F04B
:10077000010500953A4D24F003067719BE68A507D8
:100780002D0F08FA05FC26EA0C06DFF8D8C06045F4
:1007900003D14FF0000C17E054E0DFF8CCC0604507
:1007A00002D14FF0010C0FE0DFF8C0C0604502D16C
:1007B0004FF0020C08E0DFF8B8C0604502D14FF0FE
:1007C000030C01E04FF0040C0CFA05FC4CEA060C9B
:1007D000C7F808C04D68ED0205D5D9F8005015439B
:1007E000C9F8005004E0D9F800509543C9F800500A
:1007F0004D68AD0205D5DAF800501543CAF800502F
:1008000004E0DAF800509543CAF800504D68AD0393
:1008100005D5DBF800501543CBF8005004E0DBF8B9
:1008200000509543CBF800504D68ED0305D5DEF838
:1008300000501543CEF8005004E0DEF80050954318
:10084000CEF80050641C0A6832FA04F57FF429AF30
:10085000BDE8F88F080401400000111000100240AC
:100860000000014000080140000C01400010014060
:10087000001401408068084201D001207047002028
:100880007047002A01D00161704709040161704777
:100890000148806870470000040000200248816819
:1008A00002781144816070470400002010B50748A9
:1008B000016841F010010160032000F069F80F2089
:1008C00000F006F800F026F8002010BD00200240DD
:1008D00070B504460D4D4FF47A712878B1FBF0F0F5
:1008E0000B490968B1FBF0F000F07CFB08B1012076
:1008F00070BD102C07D200222146501E00F028F8AF
:100900006C60002070BD012070BD0000040000205C
:100910001000002008B50C48816941F00101816197
:10092000816901F001010091C16941F08051C1610B
:10093000C06900F0805000900449486820F0E060F1
:1009400040F00070486008BD001002400000014007
:10095000F0B40D460D4B1B68C3F30223C3F107042B
:10096000042C00D90424191D072901D2002300E01A
:10097000DB1E012606FA04F1491E294099409E40DB
:10098000761E16403143F0BC01F0A5BB0CED00E033
:1009900000F00701054A10684FF6FF03184040EACF
:1009A0000120034908431060704700000CED00E08F
:1009B0000000FA052DE9F8430446DFF8F8802078B6
:1009C000C0075FD00027D8F81C00C0000BD4D8F8AF
:1009D0001C0040F08050C8F81C00D8F81C0000F043
:1009E000805000900127344D2868C00512D4286833
:1009F00040F480702860FFF74BFF064607E0FFF7E2
:100A000047FF801B642802D90320BDE8F8832868CB
:100A1000C005F4D5D8F8200000F4407010B3A188C8
:100A200001F4407181421DD0D8F8200020F44070BC
:100A3000224901220A6000220A60C8F82000C0078B
:100A400010D0FFF725FF054641F2883606E0FFF794
:100A50001FFF401BB04201D90320D6E7D8F8200081
:100A60008007F4D5D8F82000616820F4407008436E
:100A7000C8F82000012F05D1D8F81C0020F08050C4
:100A8000C8F81C002078800707D5D8F80400A168B2
:100A900020F440400843C8F804002078C00607D579
:100AA000D8F80400E16820F480000843C8F8040086
:100AB0000020AAE7001002400070004040044242BB
:100AC0002DE9F04704460D46002C17D0DFF83081A1
:100AD000D8F8000000F00700A84211D2D8F80000B2
:100AE00020F007002843C8F80000D8F8000000F004
:100AF0000700A84204D00120BDE8F0870120FBE7F1
:100B00002068404E810712D5400703D5706840F435
:100B1000E06070602078000703D5706840F4605092
:100B200070607068A16820F0F00008437060207861
:100B3000C0072CD06068012806D0022809D031688F
:100B400089070BD40120D7E73168890306D4012037
:100B5000D2E73168890101D40120CDE7716821F025
:100B6000030101437160FFF793FE074641F28839A4
:100B700006E0FFF78DFEC01B484501D90320BBE707
:100B80007068616800F00C00B0EB810FF1D1D8F80B
:100B9000000000F00700A8420ED9D8F8000020F0AD
:100BA00007002843C8F80000D8F8000000F007004C
:100BB000A84201D001209FE72078400705D5706842
:100BC000E16820F4E060084370602078000706D5F3
:100BD0007068216920F4605040EAC100706000F044
:100BE00019F87168084AC1F30311515CC8400749FC
:100BF000086007480068FFF76BFE00207CE70000F4
:100C00000020024000100240A8260008100000202A
:100C1000080000200E4B59680E4801F00C02042A0F
:100C200011D0082A0FD10C48C1F38342805CC9035C
:100C30000AD55968084AC1F34041921E515C054AE1
:100C40005043B0FBF1F0704704494843704700003F
:100C50000010024000127A009826000800093D00AA
:100C60002DE9F84F0446002C0ED02078D94DC0074E
:100C70005ED06868C0F3810001280BD06868C0F3BB
:100C80008100022803D00CE00120BDE8F88F6868DD
:100C9000C00306D5286880034AD56068A8BB012038
:100CA000F3E76068B0F5803F11D0A8B1B0F5A02F90
:100CB0001BD0286820F480302860286820F4802029
:100CC0002860606830B3FFF7E3FD06461EE0286841
:100CD00040F480302860F4E7286820F480302860F1
:100CE000286820F480202860EBE7286840F4802002
:100CF0002860286840F480302860E2E7FFF7C8FDEC
:100D0000801B642802D90320BFE711E02868800314
:100D1000F4D50DE0FFF7BCFD064606E0FFF7B8FD91
:100D2000801B642801D90320AFE728688003F5D42D
:100D30002078DFF8A48280074FF0010A4FF0000905
:100D400045D5686810F00C0F07D06868C0F38100C3
:100D5000022812D16868C0030FD42868800704D520
:100D60002069012801D001208FE72868616920F0FF
:100D7000F80040EAC100286029E02069B8B1C8F84D
:100D800000A0FFF785FD064606E0FFF781FD801B0A
:100D9000022801D9032078E728688007F5D528685C
:100DA000616920F0F80040EAC10028600FE0C8F84F
:100DB0000090FFF76DFD064606E0FFF769FD801B1A
:100DC000022801D9032060E728688007F5D420783D
:100DD000000726D58148A16999B1C0F800A0FFF7A6
:100DE00057FD064606E0FFF753FD801B022801D998
:100DF00003204AE7686A8007F5D5012000F070FFFC
:100E00000FE0C0F80090FFF743FD064606E0FFF74D
:100E10003FFD801B022801D9032036E7686A80075E
:100E2000F5D42078400773D50026E869C00008D4BF
:100E3000E86940F08050E861E86900F08050009077
:100E40000126DFF89CB1DBF80000C00514D4DBF804
:100E5000000040F48070CBF80000FFF719FD074652
:100E600006E0FFF715FDC01B642801D903200CE73D
:100E7000DBF80000C005F4D5E068012812D0B0B15D
:100E800005281DD0286A20F001002862286A20F079
:100E900004002862E06841F2883B28B3FFF7F8FCC1
:100EA00007461DE0286A40F001002862F2E7286A40
:100EB00020F001002862286A20F004002862E9E797
:100EC000286A40F004002862286A40F00100286285
:100ED000E0E7FFF7DDFCC01B584501D90320D4E64D
:100EE000286A8007F5D50DE0FFF7D2FC074606E03B
:100EF000FFF7CEFCC01B584501D90320C5E6286A80
:100F00008007F5D4012E03D1E86920F08050E86114
:100F1000E069A0B36968C1F38101022946D00228C3
:100F200005D0C8F86090FFF7B3FC04463AE0C8F873
:100F30006090FFF7ADFC064606E0FFF7A9FC801BBA
:100F4000022801D90320A0E628688001F5D4206A90
:100F5000B0F5803F05D16868A16820F400300843EF
:100F60006860D4E908010843696821F474110843F2
:100F70006860C8F860A0FFF78BFC044607E026E035
:100F8000FFF786FC001B022801D903207DE62868B4
:100F90008001F5D51BE0FFF77BFC001B022801D97F
:100FA000032072E628688001F5D410E001280CD0F7
:100FB0006868226A00F48031914204D1616A00F4C9
:100FC0007010884203D001205FE601205DE600201A
:100FD0005BE60000001002400000424280044242F2
:100FE0000070004010B5401EB0F1807F01D3012099
:100FF00010BD4FF0E02460610F21601701F06BF825
:101000000020A06107202061002010BD70B590F87D
:101010003C20012A25D0012680F83C60022280F87D
:101020003D2002685468936824F070050C682C43D6
:1010300054600D4C0268A24208D0B2F1804F05D036
:101040000A4CA24202D00A4CA24204D123F08003EF
:101050004968194391603C304670002101700020BE
:1010600070BD022070BD0000002C01400004004053
:10107000000800402DE9F04104460D46002C03D045
:1010800094F83D0018B108E00120BDE8F08100208F
:1010900084F83C00204600F045F8022084F83D002A
:1010A0002068816844F2070291438160211D206815
:1010B00000F0E8FE273454F8270C82688169066A3C
:1010C0002B68134340F203329143AF69AA6841EAA7
:1010D00007210A4340F60C418A434FF2F0018A434C
:1010E000EF69E96842EA072211432A692F6A12016F
:1010F00042EA07320A4326F0220669686D6946EA29
:1011000005152943836054F8270C826154F8270C95
:1011100001620120E077E0752076E0762077A07507
:101120000020B2E700B585B0002101910291039142
:10113000049101681A48B1F1804F1AD0194A9142BE
:1011400015D1C16941F00401C161C16901F0040117
:101150000091816941F008018161806900F0080017
:101160000090C020019001A90F48FFF78BFA05B04D
:1011700000BDC16941F00101C161C16901F0010116
:101180000091816941F004018161806900F00400EF
:1011900000900320019001A90448FFF773FAE6E7E5
:1011A0000010024000080040000C0140000801400F
:1011B00070B5044614F83E0F6278237965793E3C99
:1011C0000226002904D004290DD001281CD115E0E5
:1011D000012801D1012B01D0012070BD84F83E60AF
:1011E00084F8426018E0012A01D1012D01D00120CC
:1011F00070BD84F83F6084F843600DE0012A03D19C
:10120000012B01D1012D01D0012070BD04F83E6FEA
:101210006670267166713E3C91B1042916D0012298
:101220000021206800F06AFE01220421206800F0FD
:1012300065FE2068016841F001010160002070BD79
:1012400001220021206800F059FEF2E7012204216A
:10125000206800F053FEECE700B585B00021019155
:1012600002910391049100680B49884211D10B4807
:10127000816941F008018161806900F008000090F7
:101280000320019002200290049001A90448FFF776
:10129000F9F905B000BD0000000400400010024054
:1012A000000C014070B504460D46002694F83C0041
:1012B00001280FD0012084F83C006AB1042A1FD015
:1012C000082A32D00C2A44D00126002084F83C00A1
:1012D000304670BD022070BD2946206800F01CFE1B
:1012E0002068816941F0080181612068816921F0ED
:1012F00004018161206881692A6911438161E4E701
:101300002946206800F038FE2068816941F40061B8
:1013100081612068816921F480618161206881692F
:101320002A6941EA02218161CFE72946206800F05D
:1013300055FE2068C16941F00801C1612068C1699A
:1013400021F00401C1612068C1692A691143C161AA
:10135000BBE72946206800F071FE2068C16941F4AE
:101360000061C1612068C16921F48061C1612068A8
:10137000C1692A6941EA0221C161A6E710B50446A4
:10138000002C03D094F83D0010B107E0012010BDFF
:10139000002084F83C00204600F016F8022084F873
:1013A0003D00211D206800F06DFD01203D3460727C
:1013B0006070A070E07020716071A071E0712072A7
:1013C0002070002010BD000008B500680649884262
:1013D00008D10648C16941F00201C161C06900F04D
:1013E0000200009008BD0000000400400010024010
:1013F00010B50446002909D004290AD008290BD0C9
:1014000094F8410001280AD0012010BD94F83E0054
:10141000F8E794F83F00F5E794F84000F2E702207F
:1014200039B3042928D0082929D084F841000122A1
:10143000206800F063FD16492068884203D1426CA1
:1014400042F4004242642068884208D0B0F1804FE4
:1014500005D01049884202D00F49884212D18168D4
:1014600001F00701062911D0016841F00101016076
:101470000CE084F83E00DAE784F83F00D7E784F810
:101480004000D4E7016841F001010160002010BD77
:10149000002C01400004004000080040FEE700006E
:1014A0003EB5002400940194029410480E49016056
:1014B0008460047304754FF46021C16144600125A8
:1014C0000561FFF715F808B1FEF789FF06200090C7
:1014D0000195029469460548FEF786FF002801D071
:1014E000FEF77DFF3EBD00000024014014000020F7
:1014F0002DE9F04385B000240194029403940494F0
:101500002C48816941F010018161816901F010016D
:101510000091816941F020018161816901F0200120
:101520000091816941F004018161816901F0040148
:101530000091816941F008018161806900F0080033
:101540000090DFF8748000220C214046FFF799F9E3
:10155000DFF868904FF47046002231464846FFF7A6
:1015600090F94FF4C04001900294039401A91448EB
:10157000FFF788F80C2001900127029703940225B9
:10158000049501A94046FFF77DF801960297039460
:10159000049501A94846FFF775F84FF4F8500190FB
:1015A0000294039401A94046FFF76CF805B0BDE82A
:1015B000F08300000010024000080140000C0140D0
:1015C0000010014010B58CB0242103A8FEF7FCFDEB
:1015D00000240194029414484FF08041016044605B
:1015E00084604FF6FF71C160046184610120039043
:1015F0000494059006940794089409900A940B9417
:1016000003A90948FFF736FD08B1FEF7E8FE01948B
:10161000029401A90448FFF7F9FC002801D0FEF765
:10162000DEFE0CB010BD00004400002010B58AB0F2
:101630000024089409941C2101A8FEF7C5FD1A484E
:101640001849016047214160846040F2E731C16080
:1016500004618461FFF792FE08B1FEF7C0FE0894B2
:10166000099408A91048FFF7D1FC08B1FEF7B7FEAE
:1016700060200190029403940594082201A90A486D
:10168000FFF710FE08B1FEF7AAFE0C2201A90648DA
:10169000FFF708FE08B1FEF7A2FE0348FFF7DCFDE6
:1016A0000AB010BD000400408C00002010B58CB0C2
:1016B000242103A8FEF788FD002401940294144815
:1016C00012490160446084604FF6FF71C16004619B
:1016D0008461012003900494059006940794089473
:1016E00009900A940B9403A90948FFF7C3FC08B1B9
:1016F000FEF775FE0194029401A90548FFF786FCE8
:10170000002801D0FEF76BFE0CB010BD00080040B1
:10171000D4000020FEE7000010B508210448FFF7C0
:1017200067FEBDE810400C210148FFF761BE0000D4
:101730008C00002010B50C4600F010FB2046BDE8E0
:10174000104000F035BBFEE710B50021074C002229
:10175000002004EBC1131A54401CC0B28028FAD3F5
:10176000491CC9B20829F3D310BD00001C01002098
:101770002DE9F041CF1823E0044686181CE07F2CA9
:1017800018D8002916DB3F2914DCCB1701EB537363
:10179000DD104FEAC51C0C4D23F007036544A1EB97
:1017A000030815F804C0012303FA08F32CEA030C1C
:1017B00005F804C0641C24B2A642E0DC491C09B24E
:1017C0008F42D9DCBDE8F0811C01002010B501205A
:1017D00000F0F0F9BDE81040012000F0F3B970B559
:1017E00005460024802626FA04F0284000D0012077
:1017F00000F0E8F9012000F0DDF9002000F0DAF94E
:10180000641CE4B2082CEED3012000F0D3F9BDE84B
:101810007040002000F0CEB910B5012000F0D2F9E0
:10182000012000F0C7F9002000F0CCF9BDE810401D
:10183000002000F0BFB910B5002000F0C3F901206E
:1018400000F0B8F9BDE81040012000F0BBB910B5B8
:10185000FFF7BCFF4FF4FA70FEF702FFAE2000F076
:10186000B9F9D52000F0B6F9802000F0B3F9A8202E
:1018700000F0B0F93F2000F0ADF9D32000F0AAF954
:10188000002000F0A7F9402000F0A4F9A12000F00A
:10189000A1F9C82000F09EF9DA2000F09BF912208F
:1018A00000F098F9812000F095F9CF2000F092F92E
:1018B000D92000F08FF9F12000F08CF9DB2000F046
:1018C00089F9302000F086F9A42000F083F9A620E1
:1018D00000F080F98D2000F07DF9142000F07AF9F5
:1018E000AF2000F077F9FFF72FFFBDE8104000F0C0
:1018F0004DB910B50C4640F0B00000F06BF9102067
:1019000040EA141000F066F904F00F00BDE8104042
:1019100000F060B908B5203A082B0CD0062B09D18D
:10192000094B02EB420203EB42020092082306221B
:1019300000F00EF808BD054B03EB021200921023D5
:10194000082200F005F808BDA82C0008B8260008F9
:101950002DE9FF4F0F46DDF8349090461D460024D8
:101960002B46424639460098FFF702FF6D1EE817E6
:1019700005EB50700121DFF888C001EBE00A3BE085
:10198000002035E000990D187F2D2FD8F91707EBAF
:101990005171CA1016B221F007017B1A002F03DA29
:1019A000761E36B208331BB2311907290DD804FB55
:1019B00008FB09EB000E0CEBC1121BF80EB0565DD4
:1019C0000BFA03FB46EA0B065655491C07290DD8AE
:1019D00004FB08F609EB000B0CEBC11116F80B60C9
:1019E0004A5DC3F10803DE4032434A55401CC0B291
:1019F0004045C7D3641CE4B2A245C1DCBDE8FF8FFB
:101A00001C0100202DE9FF4F83B080461446994603
:101A100000250026AA46ADE0010609D4012029468A
:101A20006D1C615CADB28DF804108DF805A055E019
:101A30000621B1EB501F10D10220691C625D89B2F2
:101A40008DF80420625C002A76D04A1C615C95B255
:101A50008DF805108DF806A040E00E21B1EB101FA7
:101A600018D10320691C625D89B28DF80420625C84
:101A7000002A61D04A1C615C92B28DF80510A15C0D
:101A800000297BD0511C8DB2A15C8DF806108DF819
:101A900007A023E01E21B1EBD00F23D10420691C45
:101AA000625D89B28DF80420625C002A66D04A1C0F
:101AB000615C92B28DF80510A15C00295ED0511CCA
:101AC000A25C89B28DF80620625C002A56D04A1CBE
:101AD000615C95B28DF807108DF808A0012804D03C
:101AE000002716E06D1CADB244E008EB06009DF83F
:101AF000042000B24B460499FFF70CFF06EB0900E7
:101B000086B237E0584601A9FEF786FB68B17F1C14
:101B1000BFB207EB870000EB47111A480844834621
:101B200019A1FEF779FB0028ECD1B9F1080F04D018
:101B3000B9F1060F1ED113E020E007EB870000EBA0
:101B40004711104810230844401D009008EB060080
:101B500000B21A460499FFF7FBFE1036B6B209E050
:101B600008EB060000B206233F220499FFF7D2FEDD
:101B7000B61DB6B2605D00287FF44EAF07B0BDE879
:101B8000F08F0000E22E00080000000070B5002475
:101B9000074D00212046FFF7ACFE05EBC410802165
:101BA00000F029F8641CE4B2082CF2D370BD0000E8
:101BB0001C010020024604210148FEF762BE00001D
:101BC00000080140024608210148FEF75ABE000005
:101BD0000008014010B50446FFF71EFE7820FFF70D
:101BE000FEFD0020FFF7FBFD2046FFF7F8FDBDE8F6
:101BF0001040FFF720BE70B505460E46FFF70CFEFD
:101C00007820FFF7ECFD4020FFF7E9FD002404E019
:101C1000285DFFF7E4FD641CE4B2B442F8D3BDE8EC
:101C20007040FFF708BE10B5044621606260204690
:101C300000F016F8A06800F053FB00B210BD0000E1
:101C400000210160416081608161C16101620249DE
:101C500041620249816270470000FA430000FAC302
:101C60002DE9F0410446A569E561D4E9000100F0E1
:101C70009DFC0746A061266916F0FF4F05D0394646
:101C8000206A00F0BFFA206201E0002020622946AD
:101C9000384600F08BFC616900F08AFB054630464F
:101CA000216A00F085FB06463946E06800F080FBBB
:101CB000314600F0A7FA294600F0A4FAA060616A54
:101CC00000F042FC01D2606AA060A16AA06800F046
:101CD0003BFB01D2A06AA060BDE8F0817047000024
:101CE00008B507494FF4FA520968B1FBF2F14143D4
:101CF000009100BF0098411E0091FAD208BD00007B
:101D0000100000207047000070B50024124D4FF401
:101D100080712846FEF7AEFD012800D108244FF45B
:101D200000712846FEF7A6FD012801D144F0040405
:101D30004FF400612846FEF79DFD012801D144F0D3
:101D400002044FF480512846FEF794FD012801D18A
:101D500044F00104204670BD0008014070B50446FF
:101D60004FF48041104D4E00002C09DB0122284623
:101D7000FEF787FD002231462846FEF782FD09E086
:101D800000222846FEF77DFD012231462846FEF757
:101D900078FD6442B4F57A7F01DB40F2E734034812
:101DA0000068046470BD0000000C01408C0000203D
:101DB00070B504464FF40051104D4E10002C09DB55
:101DC00001222846FEF75DFD002231462846FEF737
:101DD00058FD09E000222846FEF753FD0122314656
:101DE0002846FEF74EFD6442B4F57A7F01DB40F2EF
:101DF000E73403480068C46370BD0000000C014074
:101E00008C000020FEF74ABD30B593B0282109A808
:101E1000FEF7DAF9142104A8FEF7D6F9002400949D
:101E20000194029403940121099108040A900B94EF
:101E30000D910225109511904FF4E010129009A811
:101E4000FEF70EFF08B1FEF7CAFA0F2004900595C1
:101E500006944FF4806007900894022104A8FEF7CE
:101E60002FFE08B1FEF7BBFA00954FF40040029038
:101E70006846FEF79FFD002801D0FEF7B0FA13B0C8
:101E800030BD7047F0B50268194C1A4D1A4E4FF02C
:101E90008047A04205D0B84203D0A84201D0B0424A
:101EA00003D122F070034A681A43A04205D0B84219
:101EB00003D0A84201D0B04203D122F44073CA68D3
:101EC0001A434B6922F080021A4302608A68C26298
:101ED0000A688262A04201D109690163012141615E
:101EE0000169C90703D0016921F001010161F0BD59
:101EF000002C0140000400400008004010B501F033
:101F00001F0101238B40046A9C430462036A8A40D8
:101F10001343036210BD000030B5026A036A23F068
:101F2000010303624368846924F0700424F003050C
:101F30000C682C4322F002058A682A430D4DA84202
:101F400006D122F00802CD6845EA020525F0040218
:101F500009D123F4807323F400734D6945EA030526
:101F60008B6943EA05034360846149684163026207
:101F700030BD0000002C014030B5036A026A22F037
:101F8000100202624268846924F4E04424F440743C
:101F90000D6844EA052423F020038D6843EA051305
:101FA0000D4DA84206D123F08003CD6843EA051306
:101FB00023F0400309D122F4806222F400624D69CB
:101FC00042EA85028D6942EA85024260846149687D
:101FD0008163036230BD0000002C014030B5026A0D
:101FE000036A23F4807303624368C46924F07004B5
:101FF00024F003050C682C4322F400728D6842EA39
:1020000005220D4DA84206D122F40062CD6842EAB5
:10201000052222F4806209D123F4805323F4005373
:102020004D6943EA05138D6943EA05134360C461B2
:102030004968C163026230BD002C014030B5036ABB
:10204000026A22F4805202624268C46924F4E044C5
:1020500024F440740D6844EA052423F400538D6889
:1020600043EA0533064DA84204D122F480424D696B
:1020700042EA85124260C46149680164036230BD6E
:10208000002C014070B505460C46FEF7AAF9FEF794
:102090006BF9632818D0042802DA10F1040F03DC6E
:1020A00004EBD47149100CB200F036F9024600215D
:1020B0002846FFF7B8FD21180AB2201A01B2BDE880
:1020C00070401046FFF736BBBDE87040002108465F
:1020D000FFF730BBFEE70907090E002804DB00F11B
:1020E000E02080F80014704700F00F0000F1E020BD
:1020F00080F8141D7047000090B0FEF7D7FBFFF783
:1021000083FEFFF7F5F9FFF7CBF9FFF75BFAFFF76F
:102110008DFAFFF7CBFA00240E942C48816941F028
:1021200004018161806900F0040000900C200C9093
:1021300001200D9003200F90254D0CA92846FEF795
:10214000A1FA012204212846FEF79BFB0122082167
:102150002846FEF796FBC820FEF782FAFFF7DCFA66
:10216000FFF775FB3C211B48FFF722F83C211A487A
:10217000FFF71EF801A8FFF763FD184804900594C7
:102180001748069017480A9017480B90FFF7DCFA9B
:102190000021082315A20846FFF734FC082315A2E6
:1021A00014210020FFF72EFC082314A22821002070
:1021B000FFF728FCFFF7EAFC4FF49674214601A8CC
:1021C000FFF760FF0A20FEF74BFAF7E70010024026
:1021D0000008014044000020D400002000004842D4
:1021E0000000A0410000C8430000C8C354726163EE
:1021F0006B3A00005049443A000000004D6F64659E
:102200003A00000090EA010F48BF81F0004100F160
:10221000D481421A3CBF801A89184FEAD0524FF03D
:102220007F4C1CEA410FA2EBD15318BF9CEA026F0E
:1022300000F03B804FF0004C4CEA00204CEA0121BA
:1022400021FA03FC10EB0C0C1ED202F1FF325FEA04
:102250001C2040EBC25038BF70471CF07F0F4FEA84
:10226000400C18BFBCF17F4F38BF7047C3F120034B
:10227000994008BF20F00100BCF17F4F38BF704784
:10228000A0F1C04000F05BB94FEA3C00000A40EB0F
:10229000C25028BF1CF0FF0F4FEA400CE6D018BF19
:1022A000BCF17F4F38BF7047EAE79CEA026F05D068
:1022B00010EA5C0F08BF00F00040704710B500F056
:1022C000F8F800BF64FBBE3E401058BFC0F140406C
:1022D000491058BFC1F140418142EFF3008070477F
:1022E00041000B0ED3F19E0208D950F400034FEACF
:1022F000032323FA02F048BF4042704710B500F0B4
:10230000D8F800BF49922480002070476FF0004247
:1023100082EA20007047000010F0004148BF4042B0
:10232000B0FA80F310FA03F2C3F19D030BD051EA27
:10233000C35101EB1220530638BF704700F1010072
:1023400008BF20F00100704750EA010C00F1138033
:102350001CF5000F58BFBCF5000F01D48842704730
:1023600007D710F5000F58BF11F5000F15D488429C
:102370007047894270471CF5000F04D5BCF5000F6B
:10238000F7D5814270474FF0807C1CEB400F38BF7F
:102390001CEB410F01D28142704710B500F089F863
:1023A000922449004FF000504FF08051FFF78CBF4E
:1023B0004FF47F0C1CEAD0121EBF1CEAD11392EA24
:1023C0000C0F93EA0C0F00F0478090EA010F48BF12
:1023D00042F480724FF0004C4CEA00204CEA01219C
:1023E00002EB0302A0FB0113A2F50002002918BFB3
:1023F00043F001035B0028BF4FEA330342EB224264
:102400005FEA132C4CEBC2502EBFBCEB436FB2F50E
:102410007C0F70474FEA036CBCF1004F08BF20F0FF
:102420000100B2F57C0F38BF70470BD582F0FF0278
:1024300012F5803FC8BF704700F1C040D8BF00F020
:102440000040704700F5000C5FEA4C0C48BF704735
:10245000B0F1C04000F073B890EA010F0CEAD1135C
:1024600048BF42F48072624538BF634504D280EAB7
:10247000010000F00040704710B500F01AF800BFEE
:102480008900013E00F007B800F009B85FEA410C8E
:102490005FEA1C6C08D080EA010000F050B85FEAE7
:1024A000400C5FEA1C6CF6D14FF00040A0F58000B4
:1024B00070470EF1020E2EF0030E5EF8044B24421C
:1024C00004D44FEA4102B2F17F4F11D84FEA4003E2
:1024D000B3F17F4F0CD80ED14FEAD07CB2F17F4FD1
:1024E0000CEB4C0C0CF1020C08BF4CEBD17C04E063
:1024F0004FF0080C01E04FEAD17C0CEB4C0324FABE
:1025000003F404F00704B4F1040C06D20EEB840CBF
:10251000BDE810404CF0010C6047DFE80CF0070804
:1025200002024FF00040A0F5800010BD08464200B6
:1025300018BFD2F1807288BF00F0004010BDFF21AB
:1025400041EAD050C005704751EA000C00F11380F9
:102550001CF5000F58BFBCF5000F01D48142704735
:1025600007D711F5000F58BF10F5000F15D48142A1
:102570007047894270471CF5000F04D5BCF5000F69
:10258000F7D5884270474FF0807C1CEB410F38BF75
:102590001CEB400F01D28842704780EA010081EABB
:1025A000000180EA0100FFF7F8BE000090EA010F89
:1025B00048BF81F000413FF52CAE421A04D882F0AA
:1025C0000042A0EB020011444FEAD0524FF07F4C82
:1025D0001CEA410FA2EBD15318BF9CEA026F4AD00C
:1025E0004FF0004C4CEA00204CEA012121FA03FC98
:1025F000B0EB0C0C0FD412F0FE0F36D05FEA4C009B
:102600001DD5001240EBC25038BF70471CF03F0F81
:1026100018BF70470BE0A2F101025FEA1C2040EBFB
:10262000C25038BF70471CF07F0F18BF7047C3F10E
:102630002003994014BF401E20F00100704780081D
:102640004FEA122308BF7047B0FA80FCA2EB0C02DD
:10265000CCF1280C60FA0CF093EA122F04BF00EBC7
:10266000C25070474FEAC3707047130A5FEADC102C
:1026700008BF7047F6E79CEA026F04D010EA5C0FCF
:1026800008BF0020704710B5FFF713FF40DFF63E8C
:1026900081F00040704701020203040506070809A3
:1026A0000A0B0C0D0E0F10100000000000000000BF
:1026B00001020304060708090000000000000000F2
:1026C0000000000000000000000000F80000000012
:1026D000000000333000000000160E00160E00004F
:1026E000000000000000000040C07840C0784000BA
:1026F000043F04043F040400007088FC083000001C
:10270000001820FF211E0000F008F000E018000073
:1027100000211C031E211E0000F00888700000002C
:102720001E21232419272110000000160E0000008E
:102730000000000000000000000000E0180402009B
:10274000000000071820400000020418E00000000C
:102750000040201807000000404080F0804040000A
:102760000202010F01020200000000F00000000060
:102770000101011F01010100000000000000000034
:1027800000B0700000000000000000000000000029
:102790000001010101010101000000000000000032
:1027A00000303000000000000000000080601804CD
:1027B000006018060100000000E010080810E000AA
:1027C000000F102020100F00001010F80000000073
:1027D0000020203F202000000070080808887000BA
:1027E000003028242221300000300888884830003A
:1027F0000018202020110E000000C02010F800005A
:1028000000070424243F240000F8088888080800F2
:102810000019212020110E0000E010888818000007
:10282000000F112020110E0000380808C8380800D9
:102830000000003F00000000007088080888700059
:10284000001C222121221C0000E010080810E000DA
:102850000000312222110F00000000C0C000000063
:102860000000003030000000000000C0C000000088
:10287000000080B0700000000000804020100800C0
:102880000001020408102000404040404040400049
:102890000404040404040400000810204080000024
:1028A0000020100804020100007048080808F00029
:1028B0000000003036010000C030C828E810E000F9
:1028C0000718272423140B000000C038E000000084
:1028D000203C23020227382008F8888888700000EE
:1028E000203F202020110E00C030080808083800C2
:1028F000071820202010080008F808080810E00039
:10290000203F202020100F0008F88888E8081000D9
:10291000203F20202320180008F88888E8081000AD
:10292000203F200003000000C030080808380000E5
:1029300007182020221E020008F808000008F808E6
:10294000203F210101213F20000808F8080800006D
:102950000020203F2020000000000808F8080800A0
:10296000C08080807F00000008F888C02818080018
:10297000203F20012638200008F808000000000051
:10298000203F20202020300008F8F800F8F8080048
:10299000203F003F003F200008F830C00008F80842
:1029A000203F200007183F00E01008080810E00052
:1029B0000F10202020100F0008F808080808F00069
:1029C000203F210101010000E01008080810E0008C
:1029D0000F18242438504F0008F888888888700021
:1029E000203F2000030C30200070880808083800C1
:1029F0000038202121221C00180808F808081800B7
:102A00000000203F2000000008F808000008F80837
:102A1000001F202020201F000878880000C83808E8
:102A2000000007380E010000F80800F80008F80060
:102A3000033C0700073C03000818688080681808FA
:102A400020302C03032C30200838C800C838080078
:102A50000000203F2000000010080808C8380800C7
:102A60002038262120201800000000FE020202006B
:102A70000000007F40404000000C30C0000000001B
:102A8000000000010638C00000020202FE00000043
:102A9000004040407F000000002010080408102083
:102AA0000000000000000000000000000000000026
:102AB0008080808080808080000204080000000008
:102AC0000000000000000000000080808080000006
:102AD0000019242222223F2008F8008080000000F4
:102AE000003F112020110E000000008080800000B7
:102AF000000E112020201100000000808088F800C6
:102B0000000E112020103F200000808080800000F7
:102B1000001F222222221300008080F0888888185B
:102B20000020203F20200000000080808080800066
:102B3000006B94949493600008F8008080800000FB
:102B4000203F210000203F200080989800000000D6
:102B50000020203F20200000000000809898000006
:102B600000C08080807F000008F800008080800026
:102B7000203F24022D302000000808F8000000004B
:102B80000020203F20200000808080808080800006
:102B9000203F20003F20003F008080008080000018
:102BA00000203F2100203F20000080808080000026
:102BB000001F202020201F00808000808000000057
:102BC00080FFA12020110E00000000808080800086
:102BD000000E112020A0FF80808080008080800077
:102BE00020203F21200001000000808080808000A4
:102BF0000033242424241900008080E08080000019
:102C00000000001F20200000808000000080800065
:102C1000001F202020103F208080800000808080C6
:102C200000010E3008060100808000800080808056
:102C30000F300C030C300F0000808000808080007B
:102C40000020312E0E3120008080800000808080A6
:102C500080818E7018060100008080808080800056
:102C60000021302C2221300000000000807C020274
:102C700000000000003F404000000000FF00000096
:102C800000000000FF0000000002027C8000000045
:102C90000040403F00000000008040408000008075
:102CA0000000000000010100000000000000000022
:102CB000002F000000000700070000147F147F149D
:102CC00000242A7F2A120023130864620036495523
:102CD000225000000007000000001C2241000000FC
:102CE00041221C000014083E08140008083E080891
:102CF000000000A0600000080808080800006060EC
:102D00000000002010080402003E5149453E00002A
:102D1000427F4000004261514946002141454B310C
:102D2000001814127F10002745454539003C4A49D8
:102D3000493000017109050300364949493600064A
:102D40004949291E000036360000000056360000B2
:102D5000000814224100001414141414000041222D
:102D60001408000201510906003E4955592E007C05
:102D70001211127C007F49494936003E41414122EF
:102D8000007F4141221C007F49494941007F0909D8
:102D90000901003E4149497A007F0808087F000088
:102DA000417F4100002040413F01007F0814224143
:102DB000007F40404040007F020C027F007F0408FB
:102DC000107F003E4141413E007F09090906003E57
:102DD0004151215E007F0919294600464949493180
:102DE0000001017F0101003F4040403F001F2040A3
:102DF000201F003F4038403F006314081463000761
:102E00000870080700615149454300007F414100B7
:102E1000000204081020000041417F00000402016C
:102E20000204004040404040000001020400002035
:102E300054545478007F4844443800384444442073
:102E400000384444487F00385454541800087E0920
:102E500001020018A4A4A47C007F080404780000E8
:102E6000447D4000004080847D00007F10284400A5
:102E70000000417F4000007C04180478007C0804B6
:102E8000047800384444443800FC242424180018F2
:102E9000242418FC007C08040408004854545420DE
:102EA00000043F444020003C4040207C001C204067
:102EB000201C003C4030403C004428102844001CAA
:102EC000A0A0A07C004464544C440000087F410052
:102ED0000000007F00000000417F08000008040897
:102EE00010080000000000FF010101310909090973
:102EF000897101010101FFFF8080808080809681BF
:102F0000808080808080FF00282F00080000002043
:102F100014000000280100083C2F000814000020C5
:102F20006C0B0000440100080000000001000000DC
:0C2F3000100000000000000000127A00F9
:04000005080000ED02
:00000001FF
